S01F0000496E646976696475616C5F436F6E747269627574696F6E2E737265639D
S11300000C942A000C9447000C9447000C9447006D
S11300100C9447000C9447000C9447000C94470040
S11300200C9447000C9447000C942D020C94470048
S11300300C9447000C9447000C9447000C94470020
S11300400C9447000C9447000C9447000C94470010
S11300500C94470011241FBECFE5D8E0DEBFCDBF0E
S113006010E0A0E6B0E0ECEEF6E002C005900D92E0
S1130070AC39B107D9F720E0ACE9B0E001C01D927A
S1130080A63BB207E1F70E942C010C9474030C9474
S1130090000011B888E480B984E086BF089584EA3A
S11300A086BF06B607FEFDCF089584E986BF06B66F
S11300B004FCFDCF089590E0880F991F862B83B927
S11300C084E886BF06B607FEFDCF81B1887F089518
S11300D083B984E886BF06B607FEFDCF81B1887F69
S11300E00895813021F488E08093A000089510924F
S11300F0A00008951F93CF93DF93D82FC62F0E949B
S11301004F0060E08091A1000E945B001D2F1C2B1A
S11301108091A000812B0E9468000E9455000E94DB
S11301204F0060E08091A1000E945B008091A000DC
S1130130812B84600E9468000E9455008FE891E042
S11301400197F1F700C000000E944F0060E0809129
S1130150A1000E945B00DB7FCD2B8091A0008C2B43
S11301600E9468000E9455008FE99FE00197F1F713
S113017000C00000DF91CF911F910895CF93C82F45
S113018060E0807F0E947A0060E08C2F8295807FFF
S11301900E947A00CF910895CF93C82F0E944900FE
S11301A081E00E9471008FE39CE90197F1F700C0A0
S11301B00000C093A10082E00E94BE0088E20E9479
S11301C0BE008CE00E94BE0086E00E94BE0081E07A
S11301D00E94BE00CF910895CF93C82F61E0807F25
S11301E00E947A0061E08C2F8295807F0E947A00C1
S11301F0CF9108950F931F93CF93DF938C01C0E0A9
S1130200D0E003C00E94EC002196F801EC0FFD1F22
S113021080818111F7CFDF91CF911F910F910895C4
S1130220CF93DF93EA01613031F058F0623029F066
S1130230633029F007C090EC05C094E903C094ED45
S113024001C090E88F70892B0E94BE00CE010E94ED
S1130250FA00DF91CF91089587E20E94CC0081B328
S1130260886081BB83B7886083BF83B7826083BFA4
S113027012BE8AE08CBF89B7826089BF789481B34B
S1130280806181BB90E01DC082B3806182BB80E04D
S113029007C0E7ECF0E03197F1F700C000008F5F92
S11302A08930B8F382B38F7E82BB80E007C0E7EC6D
S11302B0F0E03197F1F700C000008F5F8930B8F3A8
S11302C09F5F943608F3FFEF24E38CE0F150204065
S11302D08040E1F700C0000090E01DC082B380615F
S11302E082BB80E007C0E7ECF0E03197F1F700C093
S11302F000008F5F8431B8F382B38F7E82BB80E0CD
S113030007C0E7ECF0E03197F1F700C000008F5F21
S11303108431B8F39F5F943608F3FFEF29E688E150
S1130320F15020408040E1F700C0000090E01DC083
S113033082B3806182BB80E007C0E7ECF0E03197D4
S1130340F1F700C000008F5F8930B8F382B38F7E6D
S113035082BB80E007C0E7ECF0E03197F1F700C022
S113036000008F5F8930B8F39F5F943608F3FFEF86
S113037024E38CE0F15020408040E1F700C000000D
S113038082B3877F82BB95E89A95F1F7000082B328
S1130390886082BBE5E8EA95F1F7000082B3877FC5
S11303A082BB04C010929F0010929E00829BFACFE1
S11303B014C060919E0070919F0080E090E00E94C4
S11303C0E60220E030E044E850E40E9445020E9446
S11303D0B70270939D0060939C008299EACF80914C
S11303E09C0090919D008233910548F420E1E0E661
S11303F0F0E0A2EAB0E001900D922A95E1F7813590
S1130400910548F021E1E0E7F0E0A2EAB0E00190D4
S11304100D922A95E1F7C3974D9748F481E1E1E8FD
S1130420F0E0A2EAB0E001900D928A95E1F742EA89
S113043050E060E080E00E941001C89B07C042E9E0
S113044050E061E080E00E94100191CF47E950E064
S113045061E080E00E9410018ACF1F920F920FB6D4
S11304600F9211248F939F9380919E0090919F00EF
S1130470019690939F0080939E0012BE9F918F914E
S11304800F900FBE0F901F9018950E9459020C9464
S11304903A030E94330358F00E942C0340F029F4DD
S11304A05F3F29F00C94230351110C946E030C94B8
S11304B029030E944B0368F39923B1F3552391F365
S11304C0951B550BBB27AA2762177307840738F0BF
S11304D09F5F5F4F220F331F441FAA1FA9F335D01C
S11304E00E2E3AF0E0E832D091505040E695001CD0
S11304F0CAF72BD0FE2F29D0660F771F881FBB1F8A
S1130500261737074807AB07B0E809F0BB0B802D67
S1130510BF01FF2793585F4F3AF09E3F510578F093
S11305200C9423030C946E035F3FE4F3983ED4F3DE
S1130530869577956795B795F7959F5FC9F7880F67
S1130540911D9695879597F90895E1E0660F771FB9
S1130550881FBB1F621773078407BA0720F0621B4A
S1130560730B840BBA0BEE1F88F7E09508950E9475
S1130570530388F09F5798F0B92F9927B751B0F0DB
S1130580E1F0660F771F881F991F1AF0BA95C9F713
S113059014C0B13091F00E946D03B1E008950C9441
S11305A06D03672F782F8827B85F39F0B93FCCF3F4
S11305B0869577956795B395D9F73EF49095809590
S11305C0709561957F4F8F4F9F4F0895E89409C0B0
S11305D097FB3EF490958095709561957F4F8F4F72
S11305E09F4F9923A9F0F92F96E9BB279395F69588
S11305F0879577956795B795F111F8CFFAF4BB0F06
S113060011F460FF1BC06F5F7F4F8F4F9F4F16C069
S1130610882311F096E911C0772321F09EE8872FF3
S1130620762F05C0662371F096E8862F70E060E0AF
S11306302AF09A95660F771F881FDAF7880F969528
S1130640879597F9089597F99F6780E870E060E0CF
S113065008959FEF80EC089500240A941616170657
S113066018060906089500240A941216130614069F
S113067005060895092E0394000C11F4882352F002
S1130680BB0F40F4BF2B11F460FF04C06F5F7F4FBA
S11306908F4F9F4F089557FD9058440F551F59F0A1
S11306A05F3F71F04795880F97FB991F61F09F3F5B
S11306B079F087950895121613061406551FF2CF84
S11306C04695F1DF08C0161617061806991FF1CFD4
S11306D086957105610508940895E894BB276627FB
S10F06E07727CB0197F90895F894FFCF19
S11306EC5761746572206C6576656C204C6F77006D
S11306FC5761746572206C6576656C20486967680F
S113070C005761746572206C6576656C2066696E41
S10F071C650048494748004C4F57200036
S9030000FC
