S01F0000496E646976696475616C5F436F6E747269627574696F6E2E737265639D
S11300000C942A000C9447000C9447000C9447006D
S11300100C9447000C9447000C9447000C94470040
S11300200C9447000C9447000C9449020C9447002C
S11300300C9447000C9447000C9447000C94470020
S11300400C9447000C9447000C9447000C94470010
S11300500C94470011241FBECFE5D8E0DEBFCDBF0E
S113006010E0A0E6B0E0E8EFFCE002C005900D92DD
S1130070A637B107D9F720E0A6E7B0E001C01D928A
S1130080A039B207E1F70E9470010C947A060C942F
S1130090000011B888E480B984E086BF089584EA3A
S11300A086BF06B607FEFDCF089584E986BF06B66F
S11300B004FCFDCF089590E0880F991F862B83B927
S11300C084E886BF06B607FEFDCF81B1887F089518
S11300D083B984E886BF06B607FEFDCF81B1887F69
S11300E00895813021F488E080937A000895109275
S11300F07A0008951F93CF93DF93D82FC62F0E94C1
S11301004F0060E080917B000E945B001D2F1C2B40
S113011080917A00812B0E9468000E9455000E9401
S11301204F0060E080917B000E945B0080917A0028
S1130130812B84600E9468000E9455008FE891E042
S11301400197F1F700C000000E944F0060E0809129
S11301507B000E945B00DB7FCD2B80917A008C2B8F
S11301600E9468000E9455008FE99FE00197F1F713
S113017000C00000DF91CF911F910895CF93C82F45
S113018060E0807F0E947A0060E08C2F8295807FFF
S11301900E947A00CF910895CF93C82F0E944900FE
S11301A081E00E9471008FE39CE90197F1F700C0A0
S11301B00000C0937B0082E00E94BE0088E20E949F
S11301C0BE008CE00E94BE0086E00E94BE0081E07A
S11301D00E94BE00CF910895CF93C82F61E0807F25
S11301E00E947A0061E08C2F8295807F0E947A00C1
S11301F0CF9108950F931F93CF93DF938C01C0E0A9
S1130200D0E003C00E94EC002196F801EC0FFD1F22
S113021080818111F7CFDF91CF911F910F910895C4
S1130220CF93DF93EA01613031F058F0623029F066
S1130230633029F007C090EC05C094E903C094ED45
S113024001C090E88F70892B0E94BE00CE010E94ED
S1130250FA00DF91CF9108958FE087BB80EF88BBD0
S113026086B38F608095E1F3803249F018F48031D1
S113027061F00CC0803429F0803829F007C091E087
S113028005C092E003C093E001C090E017BA18BA29
S113029080EF87BB8FE088BB86B3806F8095823008
S11302A049F018F4813061F00CC0843029F08830B2
S11302B029F007C0E1E005C0E2E003C0E3E001C0CB
S11302C0E0E08FE087BB80EF88BBF0E0EE0FFF1F1C
S11302D0EE0FFF1FEB59FF4FE90FF11D80810895C9
S11302E087E20E94CC0081B3886081BB83B78860B9
S11302F083BF83B7826083BF12BE8AE08CBF89B795
S1130300826089BF78942FEF84E39CE02150804081
S11303109040E1F700C0000082B3877F82BBE5E82C
S1130320EA95F1F7000082B3886082BBF5E8FA959C
S1130330F1F7000082B3877F82BB04C0109279007A
S113034010927800829BFACF14C06091780070916B
S1130350790080E090E00E9402032AE037ED43E850
S113036050E40E9461020E94D3027093770060936C
S113037076008299EACF809177008F9380917600FE
S11303808F9380E690E09F938F938CE790E09F9308
S11303908F930E9490034CE750E060E080E00E945D
S11303A0100181B3806181BB0F900F900F900F906B
S11303B00F900F9090E01DC082B3806182BB80E0FB
S11303C007C0E7ECF0E03197F1F700C000008F5F61
S11303D08A30B8F382B38F7E82BB80E007C0E7EC3B
S11303E0F0E03197F1F700C000008F5F8E3BB8F367
S11303F09F5F943608F3FFEF24E38CE0F150204034
S11304008040E1F700C0000090E01DC082B380612D
S113041082BB80E007C0E7ECF0E03197F1F700C061
S113042000008F5F8F30B8F382B38F7E82BB80E091
S113043007C0E7ECF0E03197F1F700C000008F5FF0
S11304408F30B8F39F5F943608F3FFEF24E38CE01A
S1130450F15020408040E1F700C000000E942C01D0
S11304601F928F9380E690E09F938F938CE790E0A8
S11304709F938F930E9490034CE750E061E080E0EB
S11304800E9410010F900F900F900F900F900F90FB
S1130490E5CF1F920F920FB60F9211248F939F9363
S11304A080917800909179000196909379008093DF
S11304B0780012BE9F918F910F900FBE0F901F90E6
S11304C018950E9475020C9456030E944F0358F02D
S11304D00E94480340F029F45F3F29F00C943F0345
S11304E051110C948A030C9445030E94670368F32A
S11304F09923B1F3552391F3951B550BBB27AA27D9
S113050062177307840738F09F5F5F4F220F331F12
S1130510441FAA1FA9F335D00E2E3AF0E0E832D0DA
S113052091505040E695001CCAF72BD0FE2F29D0DD
S1130530660F771F881FBB1F261737074807AB07AF
S1130540B0E809F0BB0B802DBF01FF2793585F4F24
S11305503AF09E3F510578F00C943F030C948A03C3
S11305605F3FE4F3983ED4F3869577956795B79506
S1130570F7959F5FC9F7880F911D9695879597F911
S11305800895E1E0660F771F881FBB1F621773078A
S11305908407BA0720F0621B730B840BBA0BEE1F9F
S11305A088F7E09508950E946F0388F09F5798F0AC
S11305B0B92F9927B751B0F0E1F0660F771F881F64
S11305C0991F1AF0BA95C9F714C0B13091F00E947E
S11305D08903B1E008950C948903672F782F882745
S11305E0B85F39F0B93FCCF3869577956795B395A5
S11305F0D9F73EF490958095709561957F4F8F4F14
S11306009F4F0895E89409C097FB3EF49095809518
S1130610709561957F4F8F4F9F4F9923A9F0F92FC4
S113062096E9BB279395F695879577956795B79542
S1130630F111F8CFFAF4BB0F11F460FF1BC06F5F28
S11306407F4F8F4F9F4F16C0882311F096E911C03A
S1130650772321F09EE8872F762F05C0662371F05B
S113066096E8862F70E060E02AF09A95660F771F6F
S1130670881FDAF7880F9695879597F9089597F963
S11306809F6780E870E060E008959FEF80EC089534
S113069000240A941616170618060906089500245D
S11306A00A9412161306140605060895092E0394D7
S11306B0000C11F4882352F0BB0F40F4BF2B11F44B
S11306C060FF04C06F5F7F4F8F4F9F4F089557FDAA
S11306D09058440F551F59F05F3F71F04795880FAC
S11306E097FB991F61F09F3F79F087950895121643
S11306F013061406551FF2CF4695F1DF08C01616EF
S113070017061806991FF1CF86957105610508949F
S11307100895E894BB2766277727CB0197F90895B6
S1130720AEE0B0E0E6E9F3E00C9451060D891E89D1
S113073086E08C831A8309838FEF9FE79E838D83E2
S1130740AE01475E5F4F6F89788DCE0101960E949E
S1130750B203EF81F885E00FF11F10822E96E4E0DA
S11307600C946D06ABE0B0E0E8EBF3E00C944306C8
S11307706C017B018A01FC0117821682838181FF4F
S1130780CCC1CE0101963C01F6019381F70193FDA2
S1130790859193FF81917F01882309F4BAC1853241
S11307A039F493FD859193FF81917F01853229F47A
S11307B0B60190E00E94A905E7CF912C212C312CA1
S11307C0FFE1F315D8F08B3279F038F4803279F008
S11307D08332A1F4232D20611DC08D3261F080335A
S11307E069F4232D216016C0832D8260382EE32DF9
S11307F0E4603E2E2AC0F32DF8601DC037FC2DC0E6
S113080020ED280F2A3040F08E32B9F436FC81C135
S1130810232D2064322E19C036FE06C08AE0989E2D
S1130820200D1124922E11C0EAE02E9E200D1124D9
S1130830222EF32DF0623F2E08C08C3621F4832D36
S11308408068382E02C0883641F4F70193FD859103
S113085093FF81917F018111B3CF982F9F7D955490
S1130860933028F40C5F1F4F9FE399830DC08336A8
S113087031F0833771F0833509F059C021C0F80194
S1130880808189830E5F1F4F88248394912C5301A8
S113089013C02801F2E04F0E511CF801A080B18072
S11308A036FE03C0692D70E002C06FEF7FEFC50113
S11308B00E949E054C018201F32DFF773F2E16C046
S11308C0280122E0420E511CF801A080B18036FEBE
S11308D003C0692D70E002C06FEF7FEFC5010E9475
S11308E093054C01F32DF0683F2E820133FC1BC0AD
S11308F0822D90E088169906B0F4B60180E290E06B
S11309000E94A9052A94F4CFF50137FC859137FE9E
S113091081915F01B60190E00E94A90521102A94FB
S113092021E0821A91088114910471F7E8C0843699
S113093011F0893641F5F80137FE07C060817181F5
S1130940828193810C5F1F4F08C060817181072EE3
S1130950000C880B990B0E5F1F4FF32DFF763F2E73
S113096097FF09C090958095709561957F4F8F4F43
S11309709F4FF0683F2E2AE030E0A3010E94E50576
S1130980882E861845C0853731F4232D2F7EB22E4C
S11309902AE030E025C0932D997FB92E8F36C1F01F
S11309A018F4883579F0B5C0803719F0883721F00C
S11309B0B0C0E92FE061BE2EB4FE0DC0FB2DF46083
S11309C0BF2E09C034FE0AC0292F2660B22E06C0ED
S11309D028E030E005C020E130E002C020E132E050
S11309E0F801B7FE07C060817181828193810C5F39
S11309F01F4F06C06081718180E090E00E5F1F4F41
S1130A00A3010E94E505882E8618FB2DFF773F2E53
S1130A1036FE0DC0232D2E7FA22E891458F434FEE9
S1130A200BC032FC09C0832D8E7EA82E05C0B82CC5
S1130A30A32C03C0B82C01C0B92CA4FE0FC0FE0126
S1130A40E80DF11D8081803321F49A2D997EA92E21
S1130A5009C0A2FE06C0B394B39404C08A2D86785C
S1130A6009F0B394A3FC11C0A0FE06C0B21488F42C
S1130A70280C922C9B180EC0B21460F4B60180E2CC
S1130A8090E00E94A905B394F7CFB21418F42B1880
S1130A9002C0982C212CA4FE10C0B60180E390E083
S1130AA00E94A905A2FE17C0A1FC03C088E790E03C
S1130AB002C088E590E0B6010CC08A2D867859F012
S1130AC0A1FE02C08BE201C080E2A7FC8DE2B60168
S1130AD090E00E94A905891438F4B60180E390E0FF
S1130AE00E94A9059A94F7CF8A94F301E80DF11DA9
S1130AF08081B60190E00E94A9058110F5CF2220E3
S1130B0009F442CEB60180E290E00E94A9052A943D
S1130B10F6CFF6018681978102C08FEF9FEF2B9667
S1130B20E2E10C945F06FC010590615070400110F5
S1130B30D8F7809590958E0F9F1F0895FC01615002
S1130B40704001900110D8F7809590958E0F9F1FEB
S1130B5008950F931F93CF93DF93FB01238121FD0E
S1130B6003C08FEF9FEF2CC022FF16C04681578130
S1130B70248135814217530744F4A081B1819D013A
S1130B802F5F3F4F318320838C93268137812F5FE2
S1130B903F4F3783268314C08B01EC01FB01008493
S1130BA0F185E02D0995892BE1F6D80116968D91F2
S1130BB09C911797019617969C938E931697CE0146
S1130BC0DF91CF911F910F910895FA01AA27283040
S1130BD051F1203181F1E8946F936E7F6E5F7F4F06
S1130BE08F4F9F4FAF4FB1E03ED0B4E03CD0670F82
S1130BF0781F891F9A1FA11D680F791F8A1F911DD5
S1130C00A11D6A0F711D811D911DA11D20D009F424
S1130C1068943F912AE0269F11243019305D319366
S1130C20DEF6CF010895462F4770405D4193B3E04F
S1130C300FD0C9F7F6CF462F4F70405D4A3318F0F6
S1130C40495D31FD4052419302D0A9F7EACFB4E0A7
S1130C50A6959795879577956795BA95C9F700975F
S1130C606105710508959B01AC010A2E0694579500
S1130C70479537952795BA95C9F7620F731F841F57
S1130C80951FA01D08952F923F924F925F926F92ED
S1130C907F928F929F92AF92BF92CF92DF92EF9208
S1130CA0FF920F931F93CF93DF93CDB7DEB7CA1B89
S1130CB0DB0B0FB6F894DEBF0FBECDBF09942A88B4
S1130CC0398848885F846E847D848C849B84AA845C
S1130CD0B984C884DF80EE80FD800C811B81AA81E9
S1130CE0B981CE0FD11D0FB6F894DEBF0FBECDBFB4
S10B0CF0ED010895F894FFCF13
S1130CF825303275000708090A0405060B010203AA
S1090D080C0D000E0F00AB
S9030000FC
