S00E000046696E616C652E73726563C7
S11300000C94AB000C94C8000C94C8000C94C80069
S11300100C94C8000C94C8000C94C8000C94C8003C
S11300200C94C8000C94C8000C948E060C94C80060
S11300300C94C8000C94E3010C94C8000C94C80000
S11300400C94C8000C94C8000C94C8000C94C8000C
S11300500C94C8006E616E00696E660000407A10F0
S1130060F35A00A0724E18090010A5D4E80000E865
S11300707648170000E40B54020000CA9A3B0000C3
S113008000E1F505000080969800000040420F0052
S11300900000A08601000000102700000000E80313
S11300A0000000006400000000000A0000000000DE
S11300B00100000000002C76D888DC674F0823DF9D
S11300C0C1DFAE59E1B1B796E5E3E453C63AE65170
S11300D0997696E8E6C28426EB898C9B62ED407C97
S11300E06FFCEFBC9C9F40F2BAA56FA5F490055A33
S11300F02AF75C936B6CF9676DC11BFCE0E40D4758
S1130100FEF520E6B500D0ED902E0300943577057A
S11301100080841E080000204E0A000000C80C3332
S11301203333330F986E12831141EF8D2114893BC1
S1130130E65516CFFEE6DB18D1844B381BF77C1D41
S1130140901DA4BBE424203284725E228100C9F194
S113015024ECA1E53D2711241FBECFE5D8E0DEBF86
S1130160CDBF12E0A0E6B0E0ECEEF3E202C00590F1
S11301700D92AC33B107D9F722E0ACE3B2E001C091
S11301801D92A936B207E1F70E9466070C94F41198
S11301900C94000011B888E480B984E086BF089507
S11301A084EA86BF06B607FEFDCF089584E986BFBC
S11301B006B604FCFDCF089590E0880F991F862BA6
S11301C083B984E886BF06B607FEFDCF81B1887F78
S11301D0089583B984E886BF06B607FEFDCF81B1D2
S11301E0887F089584EC86BF06B607FEFDCF83B1F1
S11301F0089584E886BF06B607FEFDCF83B108954F
S1130200813021F488E080935002089510925002C6
S113021008951F93CF93DF93D82FC62F0E94D00049
S113022060E0809153020E94DC001D2F1C2B809102
S11302305002812B0E94E9000E94D6000E94D00047
S113024060E0809153020E94DC0080915002812B77
S113025084600E94E9000E94D6008FE891E0019733
S1130260F1F700C000000E94D00060E080915302CA
S11302700E94DC00DB7FCD2B809150028C2B0E94EE
S1130280E9000E94D6008FE99FE00197F1F700C0D2
S11302900000DF91CF911F910895CF93C82F60E0A4
S11302A0807F0E94090160E08C2F8295807F0E94EC
S11302B00901CF9108950E94CA0081E00E940001C3
S11302C08FE39CE90197F1F700C0000087E2809377
S11302D0530282E00E944D0188E20E944D018CE0AD
S11302E00E944D0186E00E944D0181E00E944D0173
S11302F00895CF93C82F61E0807F0E94090161E0D7
S11303008C2F8295807F0E940901CF9108950F93CD
S11303101F93CF93DF938C01C0E0D0E003C00E9411
S113032079012196F801EC0FFD1F80818111F7CF2F
S1130330DF91CF911F910F910895CF93DF93EA013D
S1130340613031F058F0623029F0633029F007C091
S113035090EC05C094E903C094ED01C090E88F705F
S1130360892B0E944D01CE010E948701DF91CF911C
S113037008959C0140E050E060E271EA87E090E07B
S11303800E94A20F2150310930BD29B988E18AB9F0
S11303908EE880BD789408955D9BFECF8CB9089556
S11303A0CF93DF93EC0103C021960E94CC01888196
S11303B08111FACF8DE00E94CC018AE00E94CC0129
S11303C0DF91CF9108951F920F920FB60F921124CF
S11303D08F938CB180934F028F910F900FBE0F902B
S11303E01F90189597B1907F8F70892B87B986B12C
S11303F0806486B93699FECF84B195B108958FE0B3
S113040087BB80EF88BB86B38F608095E1F3803231
S113041049F018F4803161F00CC0803429F0803840
S113042029F007C091E005C092E003C093E001C049
S113043090E017BA18BA80EF87BB8FE088BB86B309
S1130440806F8095823049F018F4813061F00CC0DF
S1130450843029F0883029F007C0E1E005C0E2E0EB
S113046003C0E3E001C0E0E08FE087BB80EF88BB1E
S1130470F0E0EE0FFF1FEE0FFF1FE55DFD4FE90FEC
S1130480F11D80810895EF92FF920F931F93CF93F4
S1130490DF93CDB7DEB72C970FB6F894DEBF0FBE4F
S11304A0CDBF082F81E00E944D0147E950E060E094
S11304B080E00E949D012FEF34E34CE02150304056
S11304C04040E1F700C0000019821A821B821C829E
S11304D088E0E3E7F0E0DE01159601900D928A953D
S11304E0E1F71F921F921F921F921F921F921F9259
S11304F01F9288EE90E09F938F9384E592E09F9300
S11305008F930E94441144E552E061E080E00E9430
S11305109D0147E451E061E080E00E949D018DE08F
S11305200E944D010FB6F894DEBF0FBECDBF10E0A0
S11305300E94FF01212F30E0F901EE0FFF1F41E07F
S113054050E04C0F5D1FE40FF51F9581981708F4D8
S113055043C0FA01E20FF31F80833C812B819A810F
S113056089811F923F931F922F931F929F931F92F3
S11305708F9388EE90E09F938F9384E592E09F930E
S11305808F930E94441144E552E061E080E00E94B0
S11305909D011F5F0FB6F894DEBF0FBECDBF1430B0
S11305A008F010E0E12FF0E0EE0FFF1F21E030E053
S11305B02C0F3D1FE20FF31F47E451E061E08481FB
S11305C00E949D013FEF41EE54E0315040405040C5
S11305D0E1F700C00000ACCF8E3009F0A9CF81E074
S11305E00E944D018CE00E944D0142EA50E060E01F
S11305F080E00E949D01802F90E029813A818C0146
S1130600000F111F0E5B1D4F220F422F440F440F8A
S1130610240F230FF80120832B813C81220F422FCA
S1130620440F440F240F230F21839C01205A3F4F72
S11306307901F9018081F801608190E00E94D21172
S1130640F701808190E0F801618101960E94D21146
S1130650FFEF24E33CE0F15020403040E1F700C0DC
S113066000002C960FB6F894DEBF0FBECDBFDF910D
S1130670CF911F910F91FF90EF9008951F93CF9307
S1130680DF93CDB7DEB72C970FB6F894DEBF0FBE5D
S1130690CDBF81E00E944D014DEA50E060E080E072
S11306A00E949D012FEF44E35CE021504040504004
S11306B0E1F700C0000019821A821B821C8288E0C4
S11306C0EBE7F0E0DE01159601900D928A95E1F7D3
S11306D01F921F921F921F921F921F921F921F928E
S11306E08AEB90E09F938F9384E592E09F938F939E
S11306F00E94441144E552E061E080E00E949D01C3
S113070047E451E061E080E00E949D018DE00E9499
S11307104D010FB6F894DEBF0FBECDBF10E00E94AE
S1130720FF01212F30E0F901EE0FFF1F41E050E0FF
S11307304C0F5D1FE40FF51F9581981708F443C013
S1130740FA01E20FF31F80833C812B819A81898116
S11307501F923F931F922F931F929F931F928F93E9
S11307608AEB90E09F938F9384E592E09F938F931D
S11307700E94441144E552E061E080E00E949D0142
S11307801F5F0FB6F894DEBF0FBECDBF143008F064
S113079010E0E12FF0E0EE0FFF1F41E050E04C0FBE
S11307A05D1FE40FF51F47E451E061E084810E947E
S11307B09D015FEF81EE94E0515080409040E1F75D
S11307C000C00000ACCF8E3009F0A9CF81E00E94B8
S11307D04D018CE00E944D0144EC50E060E080E06B
S11307E00E949D01298188EE93E0289FB001299FF2
S11307F0700D11248A8124E6829F600D711D1124DD
S11308008B8190E09C01220F331F880F991F880F62
S1130810991F880F991F820F931F680F791F8C816E
S1130820680F711D709341026093400286E090E06E
S11308300E94DF114FEF54E38CE041505040804060
S1130840E1F700C000002C960FB6F894DEBF0FBE8F
S1130850CDBFDF91CF911F9108950F931F93CF9335
S1130860DF93082F162FD42F0E94D00060E088E673
S11308700E94DC0082E00E94E900CDEC0C9F912DE7
S1130880112496959695969520E1929FA0011124A6
S1130890990F292F220F220F920F802F891B842B4F
S11308A00E94E9000E94D6000E94D00060E088E621
S11308B00E94DC0081E00E94E9001C9F912D11241C
S11308C096959695969580E1989FA0011124990F8D
S11308D0292F220F220F920F812F891B842B0E9414
S11308E0E9000E94D6000E94D00060E088E60E94E1
S11308F0DC0080E00E94E900DC9FC12D1124C69534
S1130900C695C69520E1C29FC0011124CC0F9C2F2F
S1130910990F990FC90FDC1B8D2B0E94E9000E94CF
S1130920D600DF91CF911F910F9108951F93CF931C
S1130930DF93CDB7DEB762970FB6F894DEBF0FBE74
S1130940CDBF81E00E944D0141ED50E060E080E0C8
S11309500E949D012FEF44E35CE021504040504051
S1130960E1F700C00000FE01319686E0DF011D9230
S11309708A95E9F78CE0E3E8F0E0DE011796019050
S11309800D928A95E1F71F921F921F921F921F9258
S11309901F921F921F921F921F921F921F9283EE0B
S11309A090E09F938F9384E592E09F938F930E94AE
S11309B0441144E552E061E080E00E949D0147E477
S11309C051E061E080E00E949D018DE00E944D01B4
S11309D00FB6F894DEBF0FBECDBF10E00E94FF013A
S11309E0212F30E0F901EE0FFF1FA1E0B0E0AC0FC2
S11309F0BD1FEA0FFB1F9781981708F449C0FD013A
S1130A00E20FF31F80835E814D813C812B819A81AB
S1130A1089811F925F931F924F931F923F931F925E
S1130A202F931F929F931F928F9383EE90E09F9337
S1130A308F9384E592E09F938F930E94441144E541
S1130A4052E061E080E00E949D011F5F0FB6F894C0
S1130A50DEBF0FBECDBF163008F010E0E12FF0E08E
S1130A60EE0FFF1F81E090E08C0F9D1FE80FF91F30
S1130A7047E451E061E086810E949D019FEFA1EE71
S1130A80B4E09150A040B040E1F700C00000A6CF10
S1130A908D3049F18E3009F0A1CF81E00E944D01E3
S1130AA08CE00E944D0142EA50E060E080E00E9448
S1130AB09D013D816E812B815C8199818A81330FF7
S1130AC0432F440F440F430F460F220F622F660F2C
S1130AD0660F620F650F990F592F550F550F950F1C
S1130AE0890F0E942D0462960FB6F894DEBF0FBEE4
S1130AF0CDBFDF91CF911F9108950F931F93CF9393
S1130B00DF93CDB7DEB728970FB6F894DEBF0FBEDC
S1130B10CDBF81E00E944D010E94960442EF50E057
S1130B2060E080E00E949D0188E0EFE8F0E0DE01F3
S1130B30119601900D928A95E1F742E051E061E04F
S1130B4080E00E949D0100E00E94FF01182F8F3079
S1130B50A9F40F5F043008F000E0E02FF0E0EE0F9E
S1130B60FF1F81E090E08C0F9D1FE80FF91F40816B
S1130B70518161E080E00E949D0102C08D30A1F0AE
S1130B801E3011F781E00E944D0141E151E060E027
S1130B9080E00E949D019FEF29E688E1915020406A
S1130BA08040E1F700C00000033020F4802F0E9451
S1130BB0430204C0802F90E00E943E0328960FB6A3
S1130BC0F894DEBF0FBECDBFDF91CF911F910F917F
S1130BD008951F93CF93DF930E94D00060E088E6CE
S1130BE00E94DC0080E00E94E9000E94D00061E0E5
S1130BF088E60E94DC000E94F200182F0E94F20096
S1130C00D82F0E94F900C82F0E94D600812F829508
S1130C108F70880F982F990F990F890F1F70180FD5
S1130C20109368028D2F82958F70880F982F990FDB
S1130C30990F890FDF70D80FD09351028C2F8073D6
S1130C4090E0959587959595879595958795959534
S1130C508795880F982F990F990F890FCF708C0F54
S1130C6080935202DF91CF911F910895CF93DF9328
S1130C70EC018BB380688BBB2FEF84E39CE02150A5
S1130C8080409040E1F700C0000088E491E00E94B9
S1130C90D0012FEF84E39CE0215080409040E1F7A5
S1130CA000C0000088E491E00E94D0012FEF84E3AB
S1130CB09CE0215080409040E1F700C000008BE4AC
S1130CC091E00E94D0012FEF84E39CE0215080400A
S1130CD09040E1F700C0000082E691E00E94D0015C
S1130CE02FEF84E39CE0215080409040E1F700C066
S1130CF00000CE010E94D0012FEF84E39CE021503C
S1130D0080409040E1F700C000008AE10E94CC01DD
S1130D108BB38F778BBBDF91CF9108951F920F9286
S1130D200FB60F9211248F939F9380913E0290915E
S1130D303F02019690933F0280933E0212BE9F9120
S1130D408F910F900FBE0F901F901895CF92DF9246
S1130D50EF92FF9210924E0210924D0210924C02AA
S1130D6080E033C092B3906292BB9AE19A95F1F716
S1130D7000C0849B11C047E050E0481B510921E0AA
S1130D8030E002C0220F331F4A95E2F790914E02E1
S1130D90292B20934E0211C047E050E0481B510913
S1130DA021E030E002C0220F331F4A95E2F720957C
S1130DB090914E02292320934E0292B39F7D92BBC1
S1130DC09DE09A95F1F700008F5F883058F280E03B
S1130DD03EC092B3906292BB9AE19A95F1F700C03B
S1130DE0849B16C04FE050E0481B510921E030E0DD
S1130DF002C0220F331F4A95E2F740914C025091F2
S1130E004D02242B352B30934D0220934C0217C0F6
S1130E104FE050E0481B510921E030E002C0220FAE
S1130E20331F4A95E2F72095309540914C0250913A
S1130E304D022423352330934D0220934C0292B368
S1130E409F7D92BB9DE09A95F1F700008F5F803102
S1130E5008F4BFCF80914C0290914D0296958795EE
S1130E6090934D0280934C0260914E0260FF05C046
S1130E70906890934D0280934C02669560934E0265
S1130E8070E080E090E00E94030B24E632EA48E63A
S1130E9050E40E94940B6B017C0160914C027091B0
S1130EA04D0280E090E00E94010B23E33BED4CE80F
S1130EB056E40E94600A9B01AC01C701B6010E947E
S1130EC0F409FF90EF90DF90CF90089586B187608A
S1130ED086B987B1806487B986B1806886B984B3DE
S1130EE0806884BB84B3806484BB81B3806281BB2B
S1130EF082B38F7D82BB0E945B0180E895E20E94F1
S1130F00B9014CE651E060E084E00E949D012FEFBE
S1130F1039E688E1215030408040E1F700C000000C
S1130F2081E00E944D0186E090E00E94CC119093F4
S1130F3041028093400210E015C0C12FD0E0FE01B1
S1130F40E05AFF4FE080F12CC7010E94C411CC0F7E
S1130F50DD1FCE5BDD4F8883C70101960E94C4115B
S1130F6089831F5F133048F381B3886081BB83B7E3
S1130F70886083BF83B7826083BF12BE8AE08CBF60
S1130F8089B7826089BF789444E751E060E080E0EB
S1130F900E949D0145E851E061E080E00E949D01CE
S1130FA00E94FF01C82F813011F40E947D05C230D8
S1130FB059F781E00E944D0181B3806481BB82B303
S1130FC0806482BB4BE364E18BE00E942D040E94A9
S1130FD0E905809168021F928F93809151021F92BC
S1130FE08F93809152021F928F9380E991E09F9397
S1130FF08F9384E592E09F938F930E94441144E57C
S113100052E060E084E00E949D0180E487B980E0C2
S11310100E94F201BC0180E090E00E94010B20E0FC
S113102030E040EA50E40E94940B20E030E040E8D5
S11310305AE30E94940B20E030E040E650E40E9422
S1131040940B609348027093490280934A029093F0
S11310504B0280EC87B981E00E94F201BC0180E080
S113106090E00E94010B28E030E240E85EE30E9439
S1131070940B0E94D20A162F072FC62FD02F82B3AB
S1131080877F82BBF5E8FA95F1F7000082B38860A8
S113109082BB25E82A95F1F7000082B3877F82BBE3
S11310A08DB79EB70A960FB6F8949EBF0FBE8DBF3C
S11310B004C010923F0210923E02829BFACF14C0E9
S11310C060913E0270913F0280E090E00E94010B2B
S11310D021EA3DEB44E850E40E94600A0E94D20AEF
S11310E070933D0260933C028299EACF0E94A60667
S11310F020E030E04AE754E40E94940B0E94D20AB4
S1131100862F972F7C017F936F9380913D028F935D
S113111080913C028F930F931F9380914B028F9386
S113112080914A028F93809149028F938091480263
S11311308F938FE991E09F938F9384E592E09F933F
S11311408F930E94441144E552E061E080E00E94E4
S11311509D0180916D0090E0EDB7FEB73E960FB60D
S1131160F894FEBF0FBEEDBFC817D90730F08091C9
S11311706E0090E08C179D0720F484EB91E00E94B0
S113118036066091650070916600809167009091C9
S113119068008090480290904902A0904A02B09062
S11311A04B02A50194010E948F0B181674F0209134
S11311B0690030916A0040916B0050916C00C50148
S11311C0B4010E948F0B181624F481ED91E00E9463
S11311D036068091630090916400E816F90620F4C5
S11311E083EE91E00E94360689B38C7121F082EF80
S11311F091E00E94360680913C0290913D02C29794
S113120020F482E092E00E94360680913C029091A4
S11312103D028135910520F082E192E00E9436067C
S113122090916F0080915202981309C090917000C0
S113123080915102981303C085B3806485BB90915B
S1131240720080915202981309C0909173008091AA
S11312505102981303C085B38F7B85BB90914202E2
S113126080915202981306C020914302909151023A
S11312702917A1F090914402891306C020914502D8
S113128090915102291751F0909146028913A1C0FF
S1131290909147028091510298139BC080916802FB
S11312A0823008F096C082B38F7B82BB81E00E94BB
S11312B04D0143E252E060E080E00E949D0185B36D
S11312C0806885BB81B3806881BB90E01DC082B318
S11312D0806882BB80E007C0E7ECF0E03197F1F76B
S11312E000C000008F5F8A30B8F382B38F7782BB6F
S11312F080E007C0E7ECF0E03197F1F700C00000B0
S11313008F5F8E3BB8F39F5F943608F30E94A60666
S113131020E030E04AE754E40E94940B0E94D20A91
S1131320EB01FFEF20E732E0F15020403040E1F7DD
S113133000C000000E94A60620E030E04AE754E422
S11313400E94940B0E94D20A2091400230914102E3
S1131350620F731F8FEF90E7E2E081509040E0400E
S1131360E1F700C00000C617D70720F381E00E9410
S11313704D0190E01DC082B3806182BB80E007C054
S1131380E7ECF0E03197F1F700C000008F5F8F3099
S1131390B8F382B38F7E82BB80E007C0E7ECF0E055
S11313A03197F1F700C000008F5F8F30B8F39F5F73
S11313B0943608F3FFEF24E33CE0F1502040304042
S11313C0E1F700C0000085B38F7785BB82B38064EA
S11313D082BB8FEF90E7E2E081509040E040E1F77C
S11313E000C00000F4CD5058BB27AA270E940B0A66
S11313F00C94550B0E94470B38F00E944E0B20F0C2
S113140039F49F3F19F426F40C94440B0EF4E09540
S1131410E7FB0C943E0BE92F0E94660B58F3BA17B6
S1131420620773078407950720F079F4A6F50C94F6
S1131430880B0EF4E0950B2EBA2FA02D0B01B901E9
S113144090010C01CA01A0011124FF27591B99F036
S1131450593F50F4503E68F11A16F040A22F232F42
S1131460342F4427585FF3CF469537952795A79592
S1131470F0405395C9F77EF41F16BA0B620B730B39
S1131480840BBAF09150A1F0FF0FBB1F661F771FAA
S1131490881FC2F70EC0BA0F621F731F841F48F45F
S11314A0879577956795B795F7959E3F08F0B0CFE8
S11314B09395880F08F09927EE0F979587950895CF
S11314C00E94740A0C94550B0E944E0B58F00E9413
S11314D0470B40F029F45F3F29F00C943E0B511167
S11314E00C94890B0C94440B0E94660B68F39923AB
S11314F0B1F3552391F3951B550BBB27AA2762170C
S11315007307840738F09F5F5F4F220F331F441F18
S1131510AA1FA9F335D00E2E3AF0E0E832D091504C
S11315205040E695001CCAF72BD0FE2F29D0660F39
S1131530771F881FBB1F261737074807AB07B0E87C
S113154009F0BB0B802DBF01FF2793585F4F3AF082
S11315509E3F510578F00C943E0B0C94890B5F3F31
S1131560E4F3983ED4F3869577956795B795F79508
S11315709F5FC9F7880F911D9695879597F90895F0
S1131580E1E0660F771F881FBB1F6217730784078C
S1131590BA0720F0621B730B840BBA0BEE1F88F79B
S11315A0E09508950E946E0B88F09F5798F0B92F2C
S11315B09927B751B0F0E1F0660F771F881F991F84
S11315C01AF0BA95C9F714C0B13091F00E94880B93
S11315D0B1E008950C94880B672F782F8827B85FA3
S11315E039F0B93FCCF3869577956795B395D9F7DC
S11315F03EF490958095709561957F4F8F4F9F4FE6
S11316000895E89409C097FB3EF4909580957095F1
S113161061957F4F8F4F9F4F9923A9F0F92F96E93A
S1131620BB279395F695879577956795B795F111AF
S1131630F8CFFAF4BB0F11F460FF1BC06F5F7F4F4C
S11316408F4F9F4F16C0882311F096E911C077235E
S113165021F09EE8872F762F05C0662371F096E867
S1131660862F70E060E02AF09A95660F771F881F36
S1131670DAF7880F9695879597F9089597F99F67F4
S113168080E870E060E008959FEF80EC0895002406
S11316900A941616170618060906089500240A94D3
S11316A012161306140605060895092E0394000C59
S11316B011F4882352F0BB0F40F4BF2B11F460FFE8
S11316C004C06F5F7F4F8F4F9F4F089557FD905811
S11316D0440F551F59F05F3F71F04795880F97FBF2
S11316E0991F61F09F3F79F08795089512161306AC
S11316F01406551FF2CF4695F1DF08C016161706DB
S11317001806991FF1CF869571056105089408950F
S1131710E894BB2766277727CB0197F908950E94A1
S1131720010C08F48FEF08950E94A70B0C94550B3D
S11317300E94470B38F00E944E0B20F0952311F0C5
S11317400C943E0B0C94440B11240C94890B0E94B2
S1131750660B70F3959FC1F3950F50E0551F629F80
S1131760F001729FBB27F00DB11D639FAA27F00DF6
S1131770B11DAA1F649F6627B00DA11D661F829F1D
S11317802227B00DA11D621F739FB00DA11D621F02
S1131790839FA00D611D221F749F3327A00D611D1F
S11317A0231F849F600D211D822F762F6A2F112401
S11317B09F5750409AF0F1F088234AF0EE0FFF1F34
S11317C0BB1F661F771F881F91505040A9F79E3F8B
S11317D0510580F00C943E0B0C94890B5F3FE4F3AD
S11317E0983ED4F3869577956795B795F795E795E1
S11317F09F5FC1F7FE2B880F911D9695879597F9EA
S11318000895990F0008550FAA0BE0E8FEEF16168D
S11318101706E807F907C0F012161306E407F507E0
S113182098F0621B730B840B950B39F40A2661F054
S1131830232B242B252B21F408950A2609F4A140F7
S1131840A6958FEF811D811D0895A0E1B0E0EBE224
S1131850FCE00C94C10F7C011B016A01FC0117829E
S11318601682838181FF44C39E012F5F3F4F39015C
S1131870F7019381F10193FD859193FF81911F01FC
S1131880882309F431C3853239F493FD859193FF9C
S113189081911F01853239F4B70190E00E9408114B
S11318A056016501E5CF10E0512C912CFFE1F915AB
S11318B0D8F08B3279F038F4803279F08332A1F4A5
S11318C0F92DF0612EC08D3261F0803369F4292D39
S11318D021602DC0392D3260932E892D8460982E7D
S11318E02AC0E92DE86015C097FC2DC020ED280F13
S11318F02A3088F496FE06C03AE0139F200D112486
S1131900122F19C08AE0589E200D1124522EE92D61
S1131910E0629E2E10C08E3231F496FCE5C2F92DA1
S1131920F0649F2E08C08C3621F4292D2068922E55
S113193002C0883641F4F10193FD859193FF8191B2
S11319401F018111B3CF9BEB980F933020F4992D95
S11319509061805E07C09BE9980F933008F066C1E0
S1131960992D9F7E96FF16E09F73992E853619F464
S11319709064992E08C0863621F4392F3068932E4E
S113198002C01111115097FE07C01C3350F44424B7
S11319904394410E27E00BC0183038F027E017E0DD
S11319A005C027E09CE3492E02C0212F412C56019B
S11319B084E0A80EB11CF60160817181828193815B
S11319C0042DA3010E941A106C01F981FC87F0FF19
S11319D002C0F3FF06C091FC06C092FE06C000E2FE
S11319E005C00DE203C00BE201C000E08C858C70E1
S11319F019F001115AC29BC297FE10C04C0CFC8511
S1131A00F4FF04C08A81813309F44A94141474F5F0
S1131A1028E0241578F588E0482E2CC096FC2AC0CE
S1131A20812F90E08C159D059CF03CEFC3163FEF91
S1131A30D30674F0892D8068982E0AC0E2E0F0E0A5
S1131A40EC0FFD1FE10FF11D8081803319F411505B
S1131A501111F4CF97FE0EC044244394410E812FFC
S1131A6090E0C816D9062CF41C1904C044244394ED
S1131A7001C010E097FE06C01C141D0434F4C60116
S1131A80019605C085E090E002C081E090E001117C
S1131A900196112331F0212F30E02F5F3F4F820F49
S1131AA0931F252D30E08217930714F4581A01C0B0
S1131AB0512C892D897049F4552039F0B70180E201
S1131AC090E00E9408115A94F7CF002329F0B7013F
S1131AD0802F90E00E94081193FC09C0552039F032
S1131AE0B70180E390E00E9408115A94F7CF97FE63
S1131AF04CC04601D7FE02C0812C912CC601881926
S1131B009909F301E80FF91FFE87ED87960124195F
S1131B103109388B2F87012F10E011950195110998
S1131B203FEF8316930629F4B7018EE290E00E94FA
S1131B300811C814D9044CF08F8598898815990523
S1131B4024F4ED85FE85818101C080E3F1E08F1AE4
S1131B5091082D853E852F5F3F4F3E872D87801648
S1131B6091062CF0B70190E00E940811D9CFC81457
S1131B70D90441F49A81963320F4953319F43C85C1
S1131B8034FF81E3B70190E04EC08A81813319F0BC
S1131B909C859F7E9C87B70190E00E9408111111DB
S1131BA005C094FC18C085E690E017C0B7018EE22A
S1131BB090E00E9408111E5F82E001E0080FF3012B
S1131BC0E80FF11D8081B70190E00E940811802F79
S1131BD00113F3CFE6CF85E490E0B7010E9408112A
S1131BE0D7FC06C0C114D10441F4EC85E4FF05C060
S1131BF0D194C194D1088DE201C08BE2B70190E089
S1131C000E94081180E32AE0C216D1042CF08F5FF1
S1131C10FAE0CF1AD108F7CFB70190E00E9408117B
S1131C20B701C601C0960E94081154C1833631F031
S1131C30833779F0833509F056C020C0560132E06D
S1131C40A30EB11CF6018081898301E010E06301D9
S1131C5012C05601F2E0AF0EB11CF601C080D18073
S1131C6096FE03C0612F70E002C06FEF7FEFC601E4
S1131C700E94FD108C01F92DFF7714C0560122E05B
S1131C80A20EB11CF601C080D18096FE03C0612F64
S1131C9070E002C06FEF7FEFC6010E94F2108C016A
S1131CA0F92DF0689F2EF3FD1AC0852D90E00817DA
S1131CB01907A8F4B70180E290E00E9408115A9431
S1131CC0F4CFF60197FC859197FE81916F01B701DE
S1131CD090E00E94081151105A9401501109011505
S1131CE0110579F7F7C0843611F0893661F556018C
S1131CF097FE09C024E0A20EB11CF6016081718137
S1131D00828193810AC0F2E0AF0EB11CF6016081BA
S1131D107181072E000C880B990BF92DFF769F2EED
S1131D2097FF09C090958095709561957F4F8F4F6F
S1131D309F4FF0689F2E2AE030E0A3010E946611B5
S1131D40C82EC6183FC0092D853721F40F7E2AE01E
S1131D5030E01DC0097F8F3691F018F4883559F0B2
S1131D60C3C0803719F0883711F0BEC0006104FF8A
S1131D7009C0046007C094FE08C0066006C028E0DD
S1131D8030E005C020E130E002C020E132E056013D
S1131D9007FF09C084E0A80EB11CF60160817181BF
S1131DA08281938108C0F2E0AF0EB11CF60160811C
S1131DB0718180E090E0A3010E946611C82EC618CC
S1131DC00F77902E96FE0BC0092D0E7FC11650F48E
S1131DD094FE0AC092FC08C0092D0E7E05C0DC2CBE
S1131DE0092D03C0DC2C01C0D12E04FF0DC0FE015F
S1131DF0EC0DF11D8081803311F4097E09C002FFCE
S1131E0006C0D394D39404C0802F867809F0D39469
S1131E1003FD11C000FF06C01C2DD51480F4150D60
S1131E201D190DC0D51458F4B70180E290E00E944A
S1131E300811D394F7CFD51410F45D1801C0512CB8
S1131E4004FF10C0B70180E390E00E94081102FF74
S1131E5017C001FD03C088E790E002C088E590E068
S1131E60B7010CC0802F867859F001FF02C08BE2C5
S1131E7001C080E207FD8DE2B70190E00E940811E5
S1131E80C11638F4B70180E390E00E9408111150A4
S1131E90F7CFCA94F301EC0DF11D8081B70190E0F6
S1131EA00E940811C110F5CF15C0F4E0F51560F5D6
S1131EB084E0581A93FE1FC0011127C02C8523FF0C
S1131EC02AC004E510E0392D3071932EF801849175
S1131ED0811124C0552009F4E4CCB70180E290E0DC
S1131EE00E9408115A94F6CFF7018681978126C083
S1131EF08FEF9FEF23C0B70180E290E00E940811AA
S1131F005A945110F8CFD8CF512CB701802F90E0BC
S1131F100E940811D3CF08E510E0D5CF911080526C
S1131F20B70190E00E9408110F5F1F4FCFCF23E04D
S1131F30251510F483E0BDCF512CC0CF6096E2E1AB
S1131F400C94DD0F052E97FB1EF400940E94B90F2C
S1131F5057FD07D00E94F80F07FC03D04EF40C94F1
S1131F60B90F50954095309521953F4F4F4F5F4F96
S1131F70089590958095709561957F4F8F4F9F4FF1
S1131F8008952F923F924F925F926F927F928F9219
S1131F909F92AF92BF92CF92DF92EF92FF920F93F4
S1131FA01F93CF93DF93CDB7DEB7CA1BDB0B0FB6FE
S1131FB0F894DEBF0FBECDBF09942A8839884888BB
S1131FC05F846E847D848C849B84AA84B984C88451
S1131FD0DF80EE80FD800C811B81AA81B981CE0F48
S1131FE0D11D0FB6F894DEBF0FBECDBFED0108952D
S1131FF0A1E21A2EAA1BBB1BFD010DC0AA1FBB1F09
S1132000EE1FFF1FA217B307E407F50720F0A21B7A
S1132010B30BE40BF50B661F771F881F991F1A94E7
S113202069F760957095809590959B01AC01BD0111
S1132030CF010895283008F027E03327DA01990FFB
S1132040311D87FD916000966105710539F4326098
S11320502E5F3D9330E32A95E1F708959F3F30F0DA
S113206080387105610509F03C5F3C5F3D93913018
S113207008F08068911DDF93CF931F930F93FF9215
S1132080EF92192F987F9695E92F96959695E90FDB
S1132090FF27EA54FF4F99273327EE24FF24A70193
S11320A0E70105900894079428F4360FE71EF81EFC
S11320B0491F511D660F771F881F991F0694A1F7AA
S11320C00590079428F4E70EF81E491F561FC11DFA
S11320D0770F881F991F661F0694A1F70590079430
S11320E028F4F80E491F561FC71FD11D880F991FCA
S11320F0661F771F0694A1F70590079420F4490FF3
S1132100561FC71FD81F990F661F771F881F069475
S1132110A9F784911095177041F0D695C7955795F6
S11321204795F794E7941A95C1F7ECE5F0E06894C5
S11321301590159135916591959105907FE2739570
S1132140E118F10A430B560BC90BD009C0F7E10C97
S1132150F11E431F561FC91FD01D7EF4703311F4A6
S11321608A95E6CFE894015030F0080F0AF400276E
S1132170021708F4202F2395022F7A3328F079E3ED
S11321807D932A95E9F710C07D932A9589F60694E4
S113219097956795379517951794E118F10A430BAE
S11321A0560BC90BD00998F023957E9173957A3319
S11321B008F070E37C932013B8F77E9170617D93EF
S11321C030F0839571E37D9370E32A95E1F7112450
S11321D0EF90FF900F911F91CF91DF91992787FD89
S11321E090950895FC010590615070400110D8F756
S11321F0809590958E0F9F1F0895FC01615070404B
S113220001900110D8F7809590958E0F9F1F089527
S11322100F931F93CF93DF93FB01238121FD03C011
S11322208FEF9FEF2CC022FF16C046815781248177
S113223035814217530744F4A081B1819D012F5F7A
S11322403F4F318320838C93268137812F5F3F4F0B
S11322503783268314C08B01EC01FB010084F185D4
S1132260E02D0995892BE1F6D80116968D919C9164
S11322701797019617969C938E931697CE01DF912C
S1132280CF911F910F910895AEE0B0E0EAE4F1E13F
S11322900C94CF0F0D891E8986E08C831A830983E1
S11322A08FEF9FE79E838D83AE01475E5F4F6F89FB
S11322B0788DCE0101960E94250CEF81F885E00F00
S11322C0F11F10822E96E4E00C94EB0FFA01AA277A
S11322D0283051F1203181F1E8946F936E7F6E5F65
S11322E07F4F8F4F9F4FAF4FB1E03ED0B4E03CD013
S11322F0670F781F891F9A1FA11D680F791F8A1FF6
S1132300911DA11D6A0F711D811D911DA11D20D05C
S113231009F468943F912AE0269F11243019305D16
S11323203193DEF6CF010895462F4770405D419307
S1132330B3E00FD0C9F7F6CF462F4F70405D4A3354
S113234018F0495D31FD4052419302D0A9F7EACF1C
S1132350B4E0A6959795879577956795BA95C9F74B
S113236000976105710508959B01AC010A2E06943E
S11323705795479537952795BA95C9F7620F731FF7
S1132380841F951FA01D0895E199FECF9FBB8EBBAE
S1132390E09A99278DB30895A8E1B0E042E050E0B7
S11323A00C94E611262FE199FECF9FBB8EBB2DBB6B
S11323B00FB6F894E29AE19A0FBE019608950E942E
S11323C0D211272F0C94D311DC01CB01FC01E1992C
S11323D0FECF06C0FFBBEEBBE09A31960DB20D9264
S10F23E041505040B8F70895F894FFCF26
S11323EC000204D00700001841000058410A2808D4
S11323FC1E0F1E000201090305040900090109024C
S113240C0903090002010903050409060707090267
S113241C011A0129013801456E7465722074696DC5
S113242C650054696D6520416464656400456E748F
S113243C657220576569676874002575257525755F
S113244C2575670057656967687420416464656421
S113245C004164642063757272656E742054696DF6
S113246C652000257525753A257525753A2575253C
S113247C750053656C656374205363686564756C8F
S113248C650046656564696E672074696D65203105
S113249C0053656C65637465640046656564696EB8
S11324AC672074696D6520320046656564696E67E2
S11324BC2074696D65203300466F6F6420776569FD
S11324CC676874202020200041540041542B434D54
S11324DC47533D222B3934373130303030303030A3
S11324EC220041542B434D47463D310057656C63E4
S11324FC6F6D65004E656564206461746120456E82
S113250C7465723F005965732D31204E6F2D320066
S113251C253032753A253032753A2530327500251E
S113252C302E316620253032752025303275202529
S113253C3035750054656D706572617475726527FC
S113254C73204C696D6974204578636565646564B2
S113255C005068204C696D69742045786365656426
S113256C65640046696C6C2074686520666F6F64E2
S113257C73004D6F74696F6E206465746563746564
S113258C64005761746572206C6576656C206C6FA1
S113259C77005761746572206C6576656C204869A8
S11325AC67680046656564696E67000708090A0474
S10F25BC05060B0102030C0D000E0F00BD
S9030000FC
