S01F0000496E646976696475616C5F436F6E747269627574696F6E2E737265639D
S11300000C942A000C9447000C9447000C9447006D
S11300100C9447000C9447000C9447000C94470040
S11300200C9447000C9447000C9447000C94470030
S11300300C9447000C9447000C9447000C94470020
S11300400C9447000C9447000C9447000C94470010
S11300500C94470011241FBECFE5D8E0DEBFCDBF0E
S113006010E0A0E6B0E0E8ECFBE002C005900D92E1
S1130070A638B107D9F720E0A6E8B0E001C01D9288
S1130080A03AB207E1F70E947D010C94E2050C94BA
S1130090000011B888E480B984E086BF089584EA3A
S11300A086BF06B607FEFDCF089584E986BF06B66F
S11300B004FCFDCF089590E0880F991F862B83B927
S11300C084E886BF06B607FEFDCF81B1887F089518
S11300D083B984E886BF06B607FEFDCF81B1887F69
S11300E00895813021F488E080938A000895109265
S11300F08A0008951F93CF93DF93D82FC62F0E94B1
S11301004F0060E080918B000E945B001D2F1C2B30
S113011080918A00812B0E9468000E9455000E94F1
S11301204F0060E080918B000E945B0080918A0008
S1130130812B84600E9468000E9455008FE891E042
S11301400197F1F700C000000E944F0060E0809129
S11301508B000E945B00DB7FCD2B80918A008C2B6F
S11301600E9468000E9455008FE99FE00197F1F713
S113017000C00000DF91CF911F910895CF93C82F45
S113018060E0807F0E947A0060E08C2F8295807FFF
S11301900E947A00CF910895CF93C82F0E944900FE
S11301A081E00E9471008FE39CE90197F1F700C0A0
S11301B00000C0938B0082E00E94BE0088E20E948F
S11301C0BE008CE00E94BE0086E00E94BE0081E07A
S11301D00E94BE00CF910895CF93C82F61E0807F25
S11301E00E947A0061E08C2F8295807F0E947A00C1
S11301F0CF9108950F931F93CF93DF938C01C0E0A9
S1130200D0E003C00E94EC002196F801EC0FFD1F22
S113021080818111F7CFDF91CF911F910F910895C4
S1130220CF93DF93EA01613031F058F0623029F066
S1130230633029F007C090EC05C094E903C094ED45
S113024001C090E88F70892B0E94BE00CE010E94ED
S1130250FA00DF91CF91089597B1907F8F70892B29
S113026087B986B1806486B93699FECF84B195B1D9
S113027008958FE087BB80EF88BB86B38F6080953D
S1130280E1F3803249F018F4803161F00CC080341D
S113029029F0803829F007C091E005C092E003C03E
S11302A093E001C090E017BA18BA80EF87BB8FE0E3
S11302B088BB86B3806F8095823049F018F4813012
S11302C061F00CC0843029F0883029F007C0E1E0E7
S11302D005C0E2E003C0E3E001C0E0E08FE087BBDB
S11302E080EF88BBF0E0EE0FFF1FEE0FFF1FEA5810
S11302F0FF4FE90FF11D8081089586B1876086B9AB
S113030087B1806487B986B1806886B987E20E9424
S1130310CC0040E650E060E080E00E9410012FEF46
S113032089E698E1215080409040E1F700C0000048
S113033081E00E94BE0080E00E942C01BC0180E0AC
S113034090E00E94FD0120E030E040EA50E40E9489
S11303503A0220E030E040E85AE30E943A02609317
S1130360860070938700809388009093890020E032
S113037030E040E650E40E943A029F938F937F93CB
S11303806F938BE690E09F938F938CE890E09F931C
S11303908F930E94F8024CE850E060E080E00E94F5
S11303A0100181E081BB8DB79EB708960FB6F89413
S11303B09EBF0FBE8DBF0E943901C82F1F928F931D
S11303C081E790E09F938F938CE890E09F938F93C5
S11303D00E94F8024CE850E061E080E00E941001C5
S11303E00F900F900F900F900F900F90C63018F051
S11303F081E082BBE0CF12BADECFE89409C097FB5C
S11304003EF490958095709561957F4F8F4F9F4FE7
S11304109923A9F0F92F96E9BB279395F69587952B
S113042077956795B795F111F8CFFAF4BB0F11F4EE
S113043060FF1BC06F5F7F4F8F4F9F4F16C0882395
S113044011F096E911C0772321F09EE8872F762FCB
S113045005C0662371F096E8862F70E060E02AF00C
S11304609A95660F771F881FDAF7880F96958795F8
S113047097F908950E944D020C94BE020E94B002A6
S113048038F00E94B70220F0952311F00C94A702D3
S11304900C94AD0211240C94F2020E94CF0270F36A
S11304A0959FC1F3950F50E0551F629FF001729F15
S11304B0BB27F00DB11D639FAA27F00DB11DAA1F24
S11304C0649F6627B00DA11D661F829F2227B00D71
S11304D0A11D621F739FB00DA11D621F839FA00DFC
S11304E0611D221F749F3327A00D611D231F849F4C
S11304F0600D211D822F762F6A2F11249F575040A3
S11305009AF0F1F088234AF0EE0FFF1FBB1F661F1D
S1130510771F881F91505040A9F79E3F510580F0E6
S11305200C94A7020C94F2025F3FE4F3983ED4F3D8
S1130530869577956795B795F795E7959F5FC1F78A
S1130540FE2B880F911D9695879597F9089597F935
S11305509F6780E870E060E008959FEF80EC089565
S113056000240A941616170618060906089500248E
S11305700A9412161306140605060895092E039408
S1130580000C11F4882352F0BB0F40F4BF2B11F47C
S113059060FF04C06F5F7F4F8F4F9F4F089557FDDB
S11305A09058440F551F59F05F3F71F04795880FDD
S11305B097FB991F61F09F3F79F087950895121674
S11305C013061406551FF2CF4695F1DF08C0161620
S11305D017061806991FF1CF8695710561050894D1
S11305E00895E894BB2766277727CB0197F90895E8
S11305F0AEE0B0E0EEEFF2E00C94B9050D891E898F
S113060086E08C831A8309838FEF9FE79E838D8313
S1130610AE01475E5F4F6F89788DCE0101960E94CF
S11306201A03EF81F885E00FF11F10822E96E4E0A3
S11306300C94D505ABE0B0E0E0E2F3E00C94AB053C
S11306406C017B018A01FC0117821682838181FF80
S1130650CCC1CE0101963C01F6019381F70193FDD3
S1130660859193FF81917F01882309F4BAC1853272
S113067039F493FD859193FF81917F01853229F4AB
S1130680B60190E00E941105E7CF912C212C312C6A
S1130690FFE1F315D8F08B3279F038F4803279F039
S11306A08332A1F4232D20611DC08D3261F080338B
S11306B069F4232D216016C0832D8260382EE32D2A
S11306C0E4603E2E2AC0F32DF8601DC037FC2DC017
S11306D020ED280F2A3040F08E32B9F436FC81C167
S11306E0232D2064322E19C036FE06C08AE0989E5F
S11306F0200D1124922E11C0EAE02E9E200D11240B
S1130700222EF32DF0623F2E08C08C3621F4832D67
S11307108068382E02C0883641F4F70193FD859134
S113072093FF81917F018111B3CF982F9F7D9554C1
S1130730933028F40C5F1F4F9FE399830DC08336D9
S113074031F0833771F0833509F059C021C0F801C5
S1130750808189830E5F1F4F88248394912C5301D9
S113076013C02801F2E04F0E511CF801A080B180A3
S113077036FE03C0692D70E002C06FEF7FEFC50144
S11307800E9406054C018201F32DFF773F2E16C00F
S1130790280122E0420E511CF801A080B18036FEEF
S11307A003C0692D70E002C06FEF7FEFC5010E94A6
S11307B0FB044C01F32DF0683F2E820133FC1BC077
S11307C0822D90E088169906B0F4B60180E290E09C
S11307D00E9411052A94F4CFF50137FC859137FE68
S11307E081915F01B60190E00E94110521102A94C5
S11307F021E0821A91088114910471F7E8C08436CB
S113080011F0893641F5F80137FE07C06081718126
S1130810828193810C5F1F4F08C060817181072E14
S1130820000C880B990B0E5F1F4FF32DFF763F2EA4
S113083097FF09C090958095709561957F4F8F4F74
S11308409F4FF0683F2E2AE030E0A3010E944D053F
S1130850882E861845C0853731F4232D2F7EB22E7D
S11308602AE030E025C0932D997FB92E8F36C1F050
S113087018F4883579F0B5C0803719F0883721F03D
S1130880B0C0E92FE061BE2EB4FE0DC0FB2DF460B4
S1130890BF2E09C034FE0AC0292F2660B22E06C01E
S11308A028E030E005C020E130E002C020E132E081
S11308B0F801B7FE07C060817181828193810C5F6A
S11308C01F4F06C06081718180E090E00E5F1F4F72
S11308D0A3010E944D05882E8618FB2DFF773F2E1D
S11308E036FE0DC0232D2E7FA22E891458F434FE1B
S11308F00BC032FC09C0832D8E7EA82E05C0B82CF7
S1130900A32C03C0B82C01C0B92CA4FE0FC0FE0157
S1130910E80DF11D8081803321F49A2D997EA92E52
S113092009C0A2FE06C0B394B39404C08A2D86788D
S113093009F0B394A3FC11C0A0FE06C0B21488F45D
S1130940280C922C9B180EC0B21460F4B60180E2FD
S113095090E00E941105B394F7CFB21418F42B1849
S113096002C0982C212CA4FE10C0B60180E390E0B4
S11309700E941105A2FE17C0A1FC03C088E790E005
S113098002C088E590E0B6010CC08A2D867859F043
S1130990A1FE02C08BE201C080E2A7FC8DE2B60199
S11309A090E00E941105891438F4B60180E390E0C8
S11309B00E9411059A94F7CF8A94F301E80DF11D72
S11309C08081B60190E00E9411058110F5CF2220AC
S11309D009F442CEB60180E290E00E9411052A9407
S11309E0F6CFF6018681978102C08FEF9FEF2B9699
S11309F0E2E10C94C705FC010590615070400110C0
S1130A00D8F7809590958E0F9F1F0895FC01615033
S1130A10704001900110D8F7809590958E0F9F1F1C
S1130A2008950F931F93CF93DF93FB01238121FD3F
S1130A3003C08FEF9FEF2CC022FF16C04681578161
S1130A40248135814217530744F4A081B1819D016B
S1130A502F5F3F4F318320838C93268137812F5F13
S1130A603F4F3783268314C08B01EC01FB010084C4
S1130A70F185E02D0995892BE1F6D80116968D9123
S1130A809C911797019617969C938E931697CE0177
S1130A90DF91CF911F910F910895FA01AA27283071
S1130AA051F1203181F1E8946F936E7F6E5F7F4F37
S1130AB08F4F9F4FAF4FB1E03ED0B4E03CD0670FB3
S1130AC0781F891F9A1FA11D680F791F8A1F911D06
S1130AD0A11D6A0F711D811D911DA11D20D009F456
S1130AE068943F912AE0269F11243019305D319398
S1130AF0DEF6CF010895462F4770405D4193B3E081
S1130B000FD0C9F7F6CF462F4F70405D4A3318F027
S1130B10495D31FD4052419302D0A9F7EACFB4E0D8
S1130B20A6959795879577956795BA95C9F7009790
S1130B306105710508959B01AC010A2E0694579531
S1130B40479537952795BA95C9F7620F731F841F88
S1130B50951FA01D08952F923F924F925F926F921E
S1130B607F928F929F92AF92BF92CF92DF92EF9239
S1130B70FF920F931F93CF93DF93CDB7DEB7CA1BBA
S1130B80DB0B0FB6F894DEBF0FBECDBF09942A88E5
S1130B90398848885F846E847D848C849B84AA848D
S1130BA0B984C884DF80EE80FD800C811B81AA811A
S1130BB0B981CE0FD11D0FB6F894DEBF0FBECDBFE5
S10B0BC0ED010895F894FFCF44
S1130BC857616974202E202E202E0025302E32667F
S1130BD80025303275000708090A0405060B0102CE
S1090BE8030C0D000E0FCA
S9030000FC
