S01F0000496E646976697475616C5F436F6E747269627574696F6E2E737265638D
S11300000C942A000C9447000C9447000C9447006D
S11300100C9447000C9447000C9447000C94470040
S11300200C9447000C9447000C9447000C94470030
S11300300C9447000C9464010C9447000C94470002
S11300400C9447000C9447000C9447000C94470010
S11300500C94470011241FBECFE5D8E0DEBFCDBF0E
S113006010E0A0E6B0E0E0E1FDE002C005900D92F2
S1130070AA39B107D9F720E0AAE9B0E001C01D927E
S1130080A83BB207E1F70E94CD020C9486060C94BB
S1130090000011B888E480B984E086BF089584EA3A
S11300A086BF06B607FEFDCF089584E986BF06B66F
S11300B004FCFDCF089590E0880F991F862B83B927
S11300C084E886BF06B607FEFDCF81B1887F089518
S11300D083B984E886BF06B607FEFDCF81B1887F69
S11300E0089584EC86BF06B607FEFDCF83B108955C
S11300F084E886BF06B607FEFDCF83B1089581303C
S113010021F488E080939B00089510929B00089549
S11301101F93CF93DF93D82FC62F0E944F0060E028
S113012080919F000E945B001D2F1C2B80919B00DF
S1130130812B0E9468000E9455000E944F0060E0DD
S113014080919F000E945B0080919B00812B8460C2
S11301500E9468000E9455008FE891E00197F1F732
S113016000C000000E944F0060E080919F000E9448
S11301705B00DB7FCD2B80919B008C2B0E94680061
S11301800E9455008FE99FE00197F1F700C000003D
S1130190DF91CF911F910895CF93C82F60E0807FA6
S11301A00E94880060E08C2F8295807F0E948800E6
S11301B0CF910895CF93C82F0E94490081E00E94F7
S11301C07F008FE39CE90197F1F700C00000C09322
S11301D09F0082E00E94CC0088E20E94CC008CE068
S11301E00E94CC0086E00E94CC0081E00E94CC00FA
S11301F0CF910895CF93C82F61E0807F0E9488003B
S113020061E08C2F8295807F0E948800CF910895B1
S11302100F931F93CF93DF938C01C0E0D0E003C012
S11302200E94FA002196F801EC0FFD1F80818111D4
S1130230F7CFDF91CF911F910F910895CF93DF9363
S1130240EA01613031F058F0623029F0633029F06E
S113025007C090EC05C094E903C094ED01C090E898
S11302608F70892B0E94CC00CE010E940801DF917F
S1130270CF9108959C0140E050E060E271EA87E08C
S113028090E00E945B032150310930BD29B988E117
S11302908AB98EE880BD789408955D9BFECF8CB9B1
S11302A00895CF93DF93EC0103C021960E944D0182
S11302B088818111FACF8DE00E944D018AE00E946D
S11302C04D01DF91CF9108951F920F920FB60F92B7
S11302D011248F938CB180939A008F910F900FBE4D
S11302E00F901F901895DF92EF92FF920F931F9338
S11302F0CF93DF93D82EF62E142FD22F0E944F00C7
S113030060E088E60E945B0082E00E946800CDEC19
S1130310DC9E912D112496959695969520E1929FB9
S1130320A0011124990F292F220F220F920F8D2D36
S1130330891B842B0E9468000E9455000E944F0074
S113034060E088E60E945B0081E00E946800FC9EF9
S1130350912D112496959695969580E1989FA001EC
S11303601124990F292F220F220F920F8F2D891BF1
S1130370842B0E9468000E9455000E944F0060E098
S113038088E60E945B0080E00E9468001C9F912D1B
S1130390112496959695969520E1929FA00111249B
S11303A0990F292F220F220F920F812F891B842B43
S11303B00E9468000E9455000E944F0060E088E699
S11303C00E945B0084E00E946800DC9F912D112450
S11303D096959695969580E1989FA0011124990F82
S11303E0292F220F220F920F8D2F891B842B0E94FD
S11303F068000E9455000E944F0060E088E60E9459
S11304005B0085E00E9468000C9F912D1124969555
S11304109695969520E1929FA0011124990F292F7A
S1130420220F220F920F802F891B842B0E946800B9
S11304300E9455000E944F0060E088E60E945B0025
S113044086E00E946800EC9EC12D1124C695C695D5
S1130450C69520E1C29FC0011124CC0F9C2F990F97
S1130460990FC90FEC1A8E290E9468000E9455004A
S1130470DF91CF911F910F91FF90EF90DF9008953E
S1130480DF92EF92FF920F931F93CF93DF930E941B
S11304904F0060E088E60E945B0080E00E946800F4
S11304A00E944F0061E088E60E945B000E94710098
S11304B0E82E0E947100F82E0E947100082F0E94FD
S11304C07100D82E0E947100182F0E947100D82F3D
S11304D00E947800C82F0E9455008E2D82958F703F
S11304E0880F982F990F990F980F8E2D8F70E92EE2
S11304F0E80EE092B6008F2D82958F70880F982FAA
S1130500990F990F980F8F2D8F70F92EF80EF09286
S11305109D00802F807390E095958795959587959C
S11305209595879595958795880F982F990F990F8D
S1130530890F0F70800F80939E008D2D877080939C
S11305409C00812F82958F70880F982F990F990F97
S1130550890F1F70180F1093B7008D2F82958F701D
S1130560880F982F990F990F890FDF70D80FD093A8
S1130570B5008C2F82958F70880F982F990F990F43
S1130580890FCF70C80FC093B400DF91CF911F9132
S11305900F91FF90EF90DF9008952FEF84E39CE09C
S11305A0215080409040E1F700C0000087E20E94A3
S11305B0DA0080E895E20E943A012FEF84E39CE0A0
S11305C0215080409040E1F700C0000080E690E0B8
S11305D00E9451012FEF84E39CE021508040904021
S11305E0E1F700C0000080E690E00E9451012FEF87
S11305F084E39CE0215080409040E1F700C000007B
S113060083E690E00E9451012FEF84E39CE02150A7
S113061080409040E1F700C000008DE690E00E9429
S113062051010F2EF5E1EF2EF02D0CE027E141E210
S113063069E086E10E9473010E9440028091B60045
S11306401F928F9380919D001F928F9380919E00A3
S11306501F928F9389E790E09F938F93C0EAD0E035
S1130660DF93CF930E949C03AE0160E084E00E947C
S11306701E018091B4001F928F938091B5001F9248
S11306808F938091B7001F928F9388E890E09F9397
S11306908F93DF93CF930E949C03AE0161E083E0CC
S11306A00E941E018DB79EB744960FB6F8949EBF64
S11306B00FBE8DBFC1CF052E97FB1EF400940E9480
S11306C0720357FD07D00E947A0307FC03D04EF44F
S11306D00C94720350954095309521953F4F4F4FA0
S11306E05F4F089590958095709561957F4F8F4FDA
S11306F09F4F0895A1E21A2EAA1BBB1BFD010DC03A
S1130700AA1FBB1FEE1FFF1FA217B307E407F507BD
S113071020F0A21BB30BE40BF50B661F771F881F99
S1130720991F1A9469F760957095809590959B012F
S1130730AC01BD01CF010895AEE0B0E0E2EAF3E020
S11307400C945D060D891E8986E08C831A830983C7
S11307508FEF9FE79E838D83AE01475E5F4F6F8966
S1130760788DCE0101960E94BE03EF81F885E00FDB
S1130770F11F10822E96E4E00C947906ABE0B0E011
S1130780E4ECF3E00C944F066C017B018A01FC015C
S113079017821682838181FFCCC1CE0101963C0170
S11307A0F6019381F70193FD859193FF81917F0178
S11307B0882309F4BAC1853239F493FD859193FFF6
S11307C081917F01853229F4B60190E00E94B5053C
S11307D0E7CF912C212C312CFFE1F315D8F08B328B
S11307E079F038F4803279F08332A1F4232D20613A
S11307F01DC08D3261F0803369F4232D216016C051
S1130800832D8260382EE32DE4603E2E2AC0F32D22
S1130810F8601DC037FC2DC020ED280F2A3040F0B1
S11308208E32B9F436FC81C1232D2064322E19C0D6
S113083036FE06C08AE0989E200D1124922E11C027
S1130840EAE02E9E200D1124222EF32DF0623F2E7D
S113085008C08C3621F4832D8068382E02C0883677
S113086041F4F70193FD859193FF81917F018111FB
S1130870B3CF982F9F7D9554933028F40C5F1F4F6E
S11308809FE399830DC0833631F0833771F083354C
S113089009F059C021C0F801808189830E5F1F4F80
S11308A088248394912C530113C02801F2E04F0E45
S11308B0511CF801A080B18036FE03C0692D70E0A0
S11308C002C06FEF7FEFC5010E94AA054C018201AF
S11308D0F32DFF773F2E16C0280122E0420E511C53
S11308E0F801A080B18036FE03C0692D70E002C01B
S11308F06FEF7FEFC5010E949F054C01F32DF06857
S11309003F2E820133FC1BC0822D90E0881699068D
S1130910B0F4B60180E290E00E94B5052A94F4CFC9
S1130920F50137FC859137FE81915F01B60190E0B6
S11309300E94B50521102A9421E0821A910881149D
S1130940910471F7E8C0843611F0893641F5F80155
S113095037FE07C060817181828193810C5F1F4FD4
S113096008C060817181072E000C880B990B0E5F03
S11309701F4FF32DFF763F2E97FF09C0909580956A
S1130980709561957F4F8F4F9F4FF0683F2E2AE0FF
S113099030E0A3010E94F105882E861845C08537F2
S11309A031F4232D2F7EB22E2AE030E025C0932D82
S11309B0997FB92E8F36C1F018F4883579F0B5C017
S11309C0803719F0883721F0B0C0E92FE061BE2EDE
S11309D0B4FE0DC0FB2DF460BF2E09C034FE0AC066
S11309E0292F2660B22E06C028E030E005C020E1A1
S11309F030E002C020E132E0F801B7FE07C06081B8
S1130A007181828193810C5F1F4F06C06081718167
S1130A1080E090E00E5F1F4FA3010E94F105882E35
S1130A208618FB2DFF773F2E36FE0DC0232D2E7F1B
S1130A30A22E891458F434FE0BC032FC09C0832D55
S1130A408E7EA82E05C0B82CA32C03C0B82C01C0E0
S1130A50B92CA4FE0FC0FE01E80DF11D8081803386
S1130A6021F49A2D997EA92E09C0A2FE06C0B39442
S1130A70B39404C08A2D867809F0B394A3FC11C002
S1130A80A0FE06C0B21488F4280C922C9B180EC049
S1130A90B21460F4B60180E290E00E94B505B3940C
S1130AA0F7CFB21418F42B1802C0982C212CA4FEF2
S1130AB010C0B60180E390E00E94B505A2FE17C005
S1130AC0A1FC03C088E790E002C088E590E0B6018D
S1130AD00CC08A2D867859F0A1FE02C08BE201C0B9
S1130AE080E2A7FC8DE2B60190E00E94B50589146E
S1130AF038F4B60180E390E00E94B5059A94F7CFEC
S1130B008A94F301E80DF11D8081B60190E00E9402
S1130B10B5058110F5CF222009F442CEB60180E25A
S1130B2090E00E94B5052A94F6CFF601868197815C
S1130B3002C08FEF9FEF2B96E2E10C946B06FC0151
S1130B400590615070400110D8F7809590958E0FF4
S1130B509F1F0895FC016150704001900110D8F767
S1130B60809590958E0F9F1F08950F931F93CF9399
S1130B70DF93FB01238121FD03C08FEF9FEF2CC086
S1130B8022FF16C0468157812481358142175307BD
S1130B9044F4A081B1819D012F5F3F4F31832083B5
S1130BA08C93268137812F5F3F4F3783268314C070
S1130BB08B01EC01FB010084F185E02D0995892B63
S1130BC0E1F6D80116968D919C9117970196179688
S1130BD09C938E931697CE01DF91CF911F910F9125
S1130BE00895FA01AA27283051F1203181F1E894BF
S1130BF06F936E7F6E5F7F4F8F4F9F4FAF4FB1E00C
S1130C003ED0B4E03CD0670F781F891F9A1FA11D06
S1130C10680F791F8A1F911DA11D6A0F711D811D07
S1130C20911DA11D20D009F468943F912AE0269FCC
S1130C3011243019305D3193DEF6CF010895462F2B
S1130C404770405D4193B3E00FD0C9F7F6CF462F0C
S1130C504F70405D4A3318F0495D31FD4052419375
S1130C6002D0A9F7EACFB4E0A69597958795779532
S1130C706795BA95C9F700976105710508959B01B9
S1130C80AC010A2E06945795479537952795BA9542
S1130C90C9F7620F731F841F951FA01D08952F921B
S1130CA03F924F925F926F927F928F929F92AF92F8
S1130CB0BF92CF92DF92EF92FF920F931F93CF9345
S1130CC0DF93CDB7DEB7CA1BDB0B0FB6F894DEBFDC
S1130CD00FBECDBF09942A88398848885F846E8402
S1130CE07D848C849B84AA84B984C884DF80EE804C
S1130CF0FD800C811B81AA81B981CE0FD11D0FB655
S1130D00F894DEBF0FBECDBFED010895F894FFCF78
S1130D1041540041542B434D47463D310048656CD6
S1130D206C6F20576F726C6400253032753A253031
S1130D3032753A253032750025303275202530322F
S10D0D4075203230253032750000B2
S9030000FC
