S01800004763634170706C69636174696F6E63312E73726563F7
S11300000C942A000C943C000C943C000C943C008E
S11300100C943C000C943C000C943C000C943C006C
S11300200C943C000C943C000C943C000C943C005C
S11300300C943C000C943C000C943C000C943C004C
S11300400C943C000C943C000C943C000C943C003C
S11300500C943C0011241FBECFE5D8E0DEBFCDBF19
S113006020E0A0E6B0E001C01D92A736B207E1F798
S11300700E940E010C9443030C940000882339F071
S113008085B3846085BB85B3877F85BB089585B3BD
S1130090886085BB85B38B7F85BB0895CF92DF9243
S11300A0EF92FF9210926600109265001092640025
S11300B080E033C092B3986092BB9AE19A95F1F7CD
S11300C000C0829B11C047E050E0481B510921E069
S11300D030E002C0220F331F4A95E2F79091660088
S11300E0292B2093660011C047E050E0481B5109BA
S11300F021E030E002C0220F331F4A95E2F7209539
S11301009091660029232093660092B3977F92BB57
S11301109DE09A95F1F700008F5F883058F280E0F7
S11301203EC092B3986092BB9AE19A95F1F700C0F1
S1130130829B16C04FE050E0481B510921E030E09B
S113014002C0220F331F4A95E2F740916400509198
S11301506500242B352B309365002093640017C071
S11301604FE050E0481B510921E030E002C0220F6B
S1130170331F4A95E2F720953095409164005091E1
S1130180650024233523309365002093640092B3E3
S1130190977F92BB9DE09A95F1F700008F5F8031C5
S11301A008F4BFCF8091640090916500969587957F
S11301B090936500809364006091660060FF05C0C1
S11301C090689093650080936400669560936600E0
S11301D070E080E090E00E94210224E632EA48E6E2
S11301E050E40E94B2026B017C0160916400709142
S11301F0650080E090E00E941F0223E33BED4CE8A1
S113020056E40E94AD019B01AC01C701B6010E94F6
S11302104101FF90EF90DF90CF90089581B3886003
S113022081BB82B3877F82BB84B38C6284BB0E9410
S11302304E0060936000709361008093620090931D
S1130240630020E030E040E751E40E94AD0218165C
S11302503CF485B3806285BB81E00E943E0006C009
S113026085B38F7D85BB80E00E943E002FEF80E741
S113027092E0215080409040E1F700C00000D7CFC9
S11302805058BB27AA270E9458010C9473020E945D
S1130290650238F00E946C0220F039F49F3F19F493
S11302A026F40C9462020EF4E095E7FB0C945C02D5
S11302B0E92F0E94840258F3BA1762077307840770
S11302C0950720F079F4A6F50C94A6020EF4E095B7
S11302D00B2EBA2FA02D0B01B90190010C01CA01FC
S11302E0A0011124FF27591B99F0593F50F4503EA7
S11302F068F11A16F040A22F232F342F4427585F99
S1130300F3CF469537952795A795F0405395C9F7B0
S11303107EF41F16BA0B620B730B840BBAF0915068
S1130320A1F0FF0FBB1F661F771F881FC2F70EC007
S1130330BA0F621F731F841F48F4879577956795DA
S1130340B795F7959E3F08F0B0CF9395880F08F0C6
S11303509927EE0F9795879508950E94C1010C94F3
S113036073020E946C0258F00E94650240F029F466
S11303705F3F29F00C945C0251110C94A7020C9479
S113038062020E94840268F39923B1F3552391F326
S1130390951B550BBB27AA2762177307840738F0F0
S11303A09F5F5F4F220F331F441FAA1FA9F335D04D
S11303B00E2E3AF0E0E832D091505040E695001C01
S11303C0CAF72BD0FE2F29D0660F771F881FBB1FBB
S11303D0261737074807AB07B0E809F0BB0B802D99
S11303E0BF01FF2793585F4F3AF09E3F510578F0C5
S11303F00C945C020C94A7025F3FE4F3983ED4F3A0
S1130400869577956795B795F7959F5FC9F7880F98
S1130410911D9695879597F90895E1E0660F771FEA
S1130420881FBB1F621773078407BA0720F0621B7B
S1130430730B840BBA0BEE1F88F7E0950895E894CC
S113044009C097FB3EF490958095709561957F4F18
S11304508F4F9F4F9923A9F0F92F96E9BB279395C6
S1130460F695879577956795B795F111F8CFFAF4D6
S1130470BB0F11F460FF1BC06F5F7F4F8F4F9F4F07
S113048016C0882311F096E911C0772321F09EE865
S1130490872F762F05C0662371F096E8862F70E0CB
S11304A060E02AF09A95660F771F881FDAF7880FA5
S11304B09695879597F9089597F99F6780E870E076
S11304C060E008959FEF80EC089500240A941616C6
S11304D0170618060906089500240A94121613062E
S11304E0140605060895092E0394000C11F48823BC
S11304F052F0BB0F40F4BF2B11F460FF04C06F5FD8
S11305007F4F8F4F9F4F089557FD9058440F551FAD
S113051059F05F3F71F04795880F97FB991F61F081
S11305209F3F79F087950895121613061406551FF8
S1130530F2CF4695F1DF08C0161617061806991F64
S1130540F1CF86957105610508940895E894BB2759
S113055066277727CB0197F908950E941F0308F4B3
S11305608FEF08950E94C5020C9473020E946502E5
S113057038F00E946C0220F0952311F00C945C0278
S11305800C94620211240C94A7020E94840270F35A
S1130590959FC1F3950F50E0551F629FF001729F24
S11305A0BB27F00DB11D639FAA27F00DB11DAA1F33
S11305B0649F6627B00DA11D661F829F2227B00D80
S11305C0A11D621F739FB00DA11D621F839FA00D0B
S11305D0611D221F749F3327A00D611D231F849F5B
S11305E0600D211D822F762F6A2F11249F575040B2
S11305F09AF0F1F088234AF0EE0FFF1FBB1F661F2D
S1130600771F881F91505040A9F79E3F510580F0F5
S11306100C945C020C94A7025F3FE4F3983ED4F37D
S1130620869577956795B795F795E7959F5FC1F799
S1130630FE2B880F911D9695879597F90895990F2C
S11306400008550FAA0BE0E8FEEF16161706E80798
S1130650F907C0F012161306E407F50798F0621BB9
S1130660730B840B950B39F40A2661F0232B242B8E
S1130670252B21F408950A2609F4A140A6958FEFAD
S10D0680811D811D0895F894FFCF39
S9030000FC
