S01F0000496E646976696475616C5F436F6E747269627574696F6E2E737265639D
S11300000C942A000C943C000C943C000C943C008E
S11300100C943C000C943C000C943C000C943C006C
S11300200C943C000C943C000C943C000C943C005C
S11300300C943C000C943C000C943C000C943C004C
S11300400C943C000C943C000C943C000C943C003C
S11300500C943C0011241FBECFE5D8E0DEBFCDBF19
S113006020E0A0E6B0E001C01D92A236B207E1F79D
S11300700E944B000C94A9010C94000097B1907F4E
S11300808F70892B87B986B1806486B93699FECF83
S113009084B195B1089586B1876086B987B1806CC3
S11300A087B986B1806886B980E00E943E00BC01B1
S11300B080E090E00E949C0028E030E240E85EE3AB
S11300C00E9402010E946D007093610060936000C1
S11300D080E090E00E949701E7CF0E94E10088F061
S11300E09F5798F0B92F9927B751B0F0E1F0660FF8
S11300F0771F881F991F1AF0BA95C9F714C0B13039
S113010091F00E94FB00B1E008950C94FB00672F6E
S1130110782F8827B85F39F0B93FCCF38695779567
S11301206795B395D9F73EF4909580957095619550
S11301307F4F8F4F9F4F0895E89409C097FB3EF47B
S113014090958095709561957F4F8F4F9F4F992320
S1130150A9F0F92F96E9BB279395F695879577959E
S11301606795B795F111F8CFFAF4BB0F11F460FF5E
S11301701BC06F5F7F4F8F4F9F4F16C0882311F0B6
S113018096E911C0772321F09EE8872F762F05C0CA
S1130190662371F096E8862F70E060E02AF09A9565
S11301A0660F771F881FDAF7880F9695879597F95A
S11301B0089557FD9058440F551F59F05F3F71F053
S11301C04795880F97FB991F61F09F3F79F08795BA
S11301D00895121613061406551FF2CF4695F1DF43
S11301E008C0161617061806991FF1CF86957105D3
S11301F0610508940895E894BB2766277727CB0107
S113020097F908950E9415010C9486010E947801C3
S113021038F00E947F0120F0952311F00C946F01B7
S11302200C94750111240C94FC000E94D90070F305
S1130230959FC1F3950F50E0551F629FF001729F87
S1130240BB27F00DB11D639FAA27F00DB11DAA1F96
S1130250649F6627B00DA11D661F829F2227B00DE3
S1130260A11D621F739FB00DA11D621F839FA00D6E
S1130270611D221F749F3327A00D611D231F849FBE
S1130280600D211D822F762F6A2F11249F57504015
S11302909AF0F1F088234AF0EE0FFF1FBB1F661F90
S11302A0771F881F91505040A9F79E3F510580F059
S11302B00C946F010C94FC005F3FE4F3983ED4F37C
S11302C0869577956795B795F795E7959F5FC1F7FD
S11302D0FE2B880F911D9695879597F9089597F9A8
S11302E09F6780E870E060E008959FEF80EC0895D8
S11302F000240A9416161706180609060895002401
S11303000A9412161306140605060895092E03947A
S1130310000C11F4882352F0BB0F40F4BF2B11F4EE
S113032060FF04C06F5F7F4F8F4F9F4F08950E94FF
S11303309C01272F0C949D01262FE199FECF9FBB92
S11303408EBB2DBB0FB6F894E29AE19A0FBE0196CC
S10903500895F894FFCFAC
S9030000FC
